{
  "contractName": "Dex",
  "abi": [
    {
      "inputs": [],
      "stateMutability": "nonpayable",
      "type": "constructor"
    },
    {
      "anonymous": false,
      "inputs": [
        {
          "indexed": false,
          "internalType": "uint256",
          "name": "tradeId",
          "type": "uint256"
        },
        {
          "indexed": false,
          "internalType": "uint256",
          "name": "orderId",
          "type": "uint256"
        },
        {
          "indexed": true,
          "internalType": "address",
          "name": "trader1",
          "type": "address"
        },
        {
          "indexed": true,
          "internalType": "address",
          "name": "trader2",
          "type": "address"
        },
        {
          "indexed": false,
          "internalType": "uint256",
          "name": "amount",
          "type": "uint256"
        },
        {
          "indexed": false,
          "internalType": "uint256",
          "name": "price",
          "type": "uint256"
        },
        {
          "indexed": false,
          "internalType": "uint256",
          "name": "date",
          "type": "uint256"
        }
      ],
      "name": "NewTrade",
      "type": "event"
    },
    {
      "inputs": [],
      "name": "admin",
      "outputs": [
        {
          "internalType": "address",
          "name": "",
          "type": "address"
        }
      ],
      "stateMutability": "view",
      "type": "function",
      "constant": true
    },
    {
      "inputs": [],
      "name": "nextOrderId",
      "outputs": [
        {
          "internalType": "uint256",
          "name": "",
          "type": "uint256"
        }
      ],
      "stateMutability": "view",
      "type": "function",
      "constant": true
    },
    {
      "inputs": [],
      "name": "nextTradeId",
      "outputs": [
        {
          "internalType": "uint256",
          "name": "",
          "type": "uint256"
        }
      ],
      "stateMutability": "view",
      "type": "function",
      "constant": true
    },
    {
      "inputs": [
        {
          "internalType": "uint256",
          "name": "",
          "type": "uint256"
        }
      ],
      "name": "tokenList",
      "outputs": [
        {
          "internalType": "bytes32",
          "name": "",
          "type": "bytes32"
        }
      ],
      "stateMutability": "view",
      "type": "function",
      "constant": true
    },
    {
      "inputs": [
        {
          "internalType": "bytes32",
          "name": "",
          "type": "bytes32"
        }
      ],
      "name": "tokens",
      "outputs": [
        {
          "internalType": "bytes32",
          "name": "ticker",
          "type": "bytes32"
        },
        {
          "internalType": "address",
          "name": "tokenAddress",
          "type": "address"
        }
      ],
      "stateMutability": "view",
      "type": "function",
      "constant": true
    },
    {
      "inputs": [
        {
          "internalType": "address",
          "name": "",
          "type": "address"
        },
        {
          "internalType": "bytes32",
          "name": "",
          "type": "bytes32"
        }
      ],
      "name": "traderBalances",
      "outputs": [
        {
          "internalType": "uint256",
          "name": "",
          "type": "uint256"
        }
      ],
      "stateMutability": "view",
      "type": "function",
      "constant": true
    },
    {
      "inputs": [
        {
          "internalType": "bytes32",
          "name": "ticker",
          "type": "bytes32"
        },
        {
          "internalType": "enum DexLib.Side",
          "name": "side",
          "type": "uint8"
        }
      ],
      "name": "getOrders",
      "outputs": [
        {
          "components": [
            {
              "internalType": "uint256",
              "name": "id",
              "type": "uint256"
            },
            {
              "internalType": "address",
              "name": "trader",
              "type": "address"
            },
            {
              "internalType": "enum DexLib.Side",
              "name": "side",
              "type": "uint8"
            },
            {
              "internalType": "bytes32",
              "name": "ticker",
              "type": "bytes32"
            },
            {
              "internalType": "uint256",
              "name": "amount",
              "type": "uint256"
            },
            {
              "internalType": "uint256",
              "name": "filled",
              "type": "uint256"
            },
            {
              "internalType": "uint256",
              "name": "price",
              "type": "uint256"
            },
            {
              "internalType": "uint256",
              "name": "date",
              "type": "uint256"
            }
          ],
          "internalType": "struct DexLib.Order[]",
          "name": "",
          "type": "tuple[]"
        }
      ],
      "stateMutability": "view",
      "type": "function",
      "constant": true
    },
    {
      "inputs": [],
      "name": "getTokens",
      "outputs": [
        {
          "components": [
            {
              "internalType": "bytes32",
              "name": "ticker",
              "type": "bytes32"
            },
            {
              "internalType": "address",
              "name": "tokenAddress",
              "type": "address"
            }
          ],
          "internalType": "struct DexLib.Token[]",
          "name": "",
          "type": "tuple[]"
        }
      ],
      "stateMutability": "view",
      "type": "function",
      "constant": true
    },
    {
      "inputs": [
        {
          "internalType": "bytes32",
          "name": "ticker",
          "type": "bytes32"
        },
        {
          "internalType": "address",
          "name": "tokenAddress",
          "type": "address"
        }
      ],
      "name": "addToken",
      "outputs": [],
      "stateMutability": "nonpayable",
      "type": "function"
    },
    {
      "inputs": [
        {
          "internalType": "uint256",
          "name": "amount",
          "type": "uint256"
        },
        {
          "internalType": "bytes32",
          "name": "ticker",
          "type": "bytes32"
        }
      ],
      "name": "deposit",
      "outputs": [],
      "stateMutability": "nonpayable",
      "type": "function"
    },
    {
      "inputs": [
        {
          "internalType": "uint256",
          "name": "amount",
          "type": "uint256"
        },
        {
          "internalType": "bytes32",
          "name": "ticker",
          "type": "bytes32"
        }
      ],
      "name": "withdraw",
      "outputs": [],
      "stateMutability": "nonpayable",
      "type": "function"
    },
    {
      "inputs": [
        {
          "internalType": "bytes32",
          "name": "ticker",
          "type": "bytes32"
        },
        {
          "internalType": "uint256",
          "name": "amount",
          "type": "uint256"
        },
        {
          "internalType": "uint256",
          "name": "price",
          "type": "uint256"
        },
        {
          "internalType": "enum DexLib.Side",
          "name": "side",
          "type": "uint8"
        }
      ],
      "name": "createLimitOrder",
      "outputs": [],
      "stateMutability": "nonpayable",
      "type": "function"
    },
    {
      "inputs": [
        {
          "internalType": "bytes32",
          "name": "ticker",
          "type": "bytes32"
        },
        {
          "internalType": "uint256",
          "name": "amount",
          "type": "uint256"
        },
        {
          "internalType": "enum DexLib.Side",
          "name": "side",
          "type": "uint8"
        }
      ],
      "name": "createMarketOrder",
      "outputs": [],
      "stateMutability": "nonpayable",
      "type": "function"
    }
  ],
  "bytecode": "0x608060405234801561001057600080fd5b5033600460006101000a81548173ffffffffffffffffffffffffffffffffffffffff021916908373ffffffffffffffffffffffffffffffffffffffff16021790555061352a806100616000396000f3fe608060405234801561001057600080fd5b50600436106100cf5760003560e01c80639776aacf1161008c578063aa6ca80811610066578063aa6ca80814610225578063c9630cb014610243578063d9c0c9501461025f578063f851a4401461027b576100cf565b80639776aacf146101bd5780639ead7222146101d9578063a8d2021a14610209576100cf565b80632a58b330146100d457806346e9658b146100f257806372ce957e146101225780637f2c624614610152578063813ad0831461016e578063904194a31461018c575b600080fd5b6100dc610299565b6040516100e99190613061565b60405180910390f35b61010c60048036038101906101079190612a52565b61029f565b6040516101199190612f19565b60405180910390f35b61013c60048036038101906101379190612988565b610475565b6040516101499190613061565b60405180910390f35b61016c60048036038101906101679190612a8e565b61049a565b005b610176611528565b6040516101839190613061565b60405180910390f35b6101a660048036038101906101a191906129ed565b61152e565b6040516101b4929190612f78565b60405180910390f35b6101d760048036038101906101d29190612a16565b611572565b005b6101f360048036038101906101ee9190612b40565b6116c0565b6040516102009190612f5d565b60405180910390f35b610223600480360381019061021e9190612b69565b6116e4565b005b61022d61194c565b60405161023a9190612f3b565b60405180910390f35b61025d60048036038101906102589190612b69565b611b3d565b005b61027960048036038101906102749190612add565b611d14565b005b6102836128c6565b6040516102909190612e9e565b60405180910390f35b60055481565b60606002600084815260200190815260200160002060008360018111156102ef577f4e487b7100000000000000000000000000000000000000000000000000000000600052602160045260246000fd5b8152602001908152602001600020805480602002602001604051908101604052809291908181526020016000905b82821015610469578382906000526020600020906007020160405180610100016040529081600082015481526020016001820160009054906101000a900473ffffffffffffffffffffffffffffffffffffffff1673ffffffffffffffffffffffffffffffffffffffff1673ffffffffffffffffffffffffffffffffffffffff1681526020016001820160149054906101000a900460ff1660018111156103ec577f4e487b7100000000000000000000000000000000000000000000000000000000600052602160045260246000fd5b6001811115610424577f4e487b7100000000000000000000000000000000000000000000000000000000600052602160045260246000fd5b8152602001600282015481526020016003820154815260200160048201548152602001600582015481526020016006820154815250508152602001906001019061031d565b50505050905092915050565b6001602052816000526040600020602052806000526040600020600091509150505481565b82600073ffffffffffffffffffffffffffffffffffffffff1660008083815260200190815260200160002060010160009054906101000a900473ffffffffffffffffffffffffffffffffffffffff1673ffffffffffffffffffffffffffffffffffffffff161415610540576040517f08c379a000000000000000000000000000000000000000000000000000000000815260040161053790613041565b60405180910390fd5b837f44414900000000000000000000000000000000000000000000000000000000008114156105a4576040517f08c379a000000000000000000000000000000000000000000000000000000000815260040161059b90612fe1565b60405180910390fd5b60006001808111156105df577f4e487b7100000000000000000000000000000000000000000000000000000000600052602160045260246000fd5b846001811115610618577f4e487b7100000000000000000000000000000000000000000000000000000000600052602160045260246000fd5b14905080156106b55784600160003373ffffffffffffffffffffffffffffffffffffffff1673ffffffffffffffffffffffffffffffffffffffff16815260200190815260200160002060008881526020019081526020016000205410156106b4576040517f08c379a00000000000000000000000000000000000000000000000000000000081526004016106ab90613001565b60405180910390fd5b5b6000600260008881526020019081526020016000206000836106d85760016106db565b60005b6001811115610713577f4e487b7100000000000000000000000000000000000000000000000000000000600052602160045260246000fd5b815260200190815260200160002090506000808790505b82805490508210801561073d5750600081115b156111ca57600083838154811061077d577f4e487b7100000000000000000000000000000000000000000000000000000000600052603260045260246000fd5b9060005260206000209060070201600401548484815481106107c8577f4e487b7100000000000000000000000000000000000000000000000000000000600052603260045260246000fd5b9060005260206000209060070201600301546107e49190613202565b905060008183116107f557826107f7565b815b905080836108059190613202565b925080858581548110610841577f4e487b7100000000000000000000000000000000000000000000000000000000600052603260045260246000fd5b906000526020600020906007020160040160008282546108619190613152565b925050819055503373ffffffffffffffffffffffffffffffffffffffff168585815481106108b8577f4e487b7100000000000000000000000000000000000000000000000000000000600052603260045260246000fd5b906000526020600020906007020160010160009054906101000a900473ffffffffffffffffffffffffffffffffffffffff1673ffffffffffffffffffffffffffffffffffffffff167f9978fdb3a211975622b71134cdca10c08d124f7251547ffa8fc72880f7e7499260065488888154811061095d577f4e487b7100000000000000000000000000000000000000000000000000000000600052603260045260246000fd5b906000526020600020906007020160000154858a8a815481106109a9577f4e487b7100000000000000000000000000000000000000000000000000000000600052603260045260246000fd5b906000526020600020906007020160050154426040516109cd95949392919061307c565b60405180910390a38515610d3a5780600160003373ffffffffffffffffffffffffffffffffffffffff1673ffffffffffffffffffffffffffffffffffffffff16815260200190815260200160002060008d81526020019081526020016000206000828254610a3b9190613202565b92505081905550848481548110610a7b577f4e487b7100000000000000000000000000000000000000000000000000000000600052603260045260246000fd5b90600052602060002090600702016005015481610a9891906131a8565b600160003373ffffffffffffffffffffffffffffffffffffffff1673ffffffffffffffffffffffffffffffffffffffff16815260200190815260200160002060007f444149000000000000000000000000000000000000000000000000000000000081526020019081526020016000206000828254610b179190613152565b925050819055508060016000878781548110610b5c577f4e487b7100000000000000000000000000000000000000000000000000000000600052603260045260246000fd5b906000526020600020906007020160010160009054906101000a900473ffffffffffffffffffffffffffffffffffffffff1673ffffffffffffffffffffffffffffffffffffffff1673ffffffffffffffffffffffffffffffffffffffff16815260200190815260200160002060008d81526020019081526020016000206000828254610be89190613152565b92505081905550848481548110610c28577f4e487b7100000000000000000000000000000000000000000000000000000000600052603260045260246000fd5b90600052602060002090600702016005015481610c4591906131a8565b60016000878781548110610c82577f4e487b7100000000000000000000000000000000000000000000000000000000600052603260045260246000fd5b906000526020600020906007020160010160009054906101000a900473ffffffffffffffffffffffffffffffffffffffff1673ffffffffffffffffffffffffffffffffffffffff1673ffffffffffffffffffffffffffffffffffffffff16815260200190815260200160002060007f444149000000000000000000000000000000000000000000000000000000000081526020019081526020016000206000828254610d2e9190613202565b9250508190555061119d565b848481548110610d73577f4e487b7100000000000000000000000000000000000000000000000000000000600052603260045260246000fd5b90600052602060002090600702016005015481610d9091906131a8565b600160003373ffffffffffffffffffffffffffffffffffffffff1673ffffffffffffffffffffffffffffffffffffffff16815260200190815260200160002060007f44414900000000000000000000000000000000000000000000000000000000008152602001908152602001600020541015610e42576040517f08c379a0000000000000000000000000000000000000000000000000000000008152600401610e3990613021565b60405180910390fd5b80600160003373ffffffffffffffffffffffffffffffffffffffff1673ffffffffffffffffffffffffffffffffffffffff16815260200190815260200160002060008d81526020019081526020016000206000828254610ea29190613152565b92505081905550848481548110610ee2577f4e487b7100000000000000000000000000000000000000000000000000000000600052603260045260246000fd5b90600052602060002090600702016005015481610eff91906131a8565b600160003373ffffffffffffffffffffffffffffffffffffffff1673ffffffffffffffffffffffffffffffffffffffff16815260200190815260200160002060007f444149000000000000000000000000000000000000000000000000000000000081526020019081526020016000206000828254610f7e9190613202565b925050819055508060016000878781548110610fc3577f4e487b7100000000000000000000000000000000000000000000000000000000600052603260045260246000fd5b906000526020600020906007020160010160009054906101000a900473ffffffffffffffffffffffffffffffffffffffff1673ffffffffffffffffffffffffffffffffffffffff1673ffffffffffffffffffffffffffffffffffffffff16815260200190815260200160002060008d8152602001908152602001600020600082825461104f9190613202565b9250508190555084848154811061108f577f4e487b7100000000000000000000000000000000000000000000000000000000600052603260045260246000fd5b906000526020600020906007020160050154816110ac91906131a8565b600160008787815481106110e9577f4e487b7100000000000000000000000000000000000000000000000000000000600052603260045260246000fd5b906000526020600020906007020160010160009054906101000a900473ffffffffffffffffffffffffffffffffffffffff1673ffffffffffffffffffffffffffffffffffffffff1673ffffffffffffffffffffffffffffffffffffffff16815260200190815260200160002060007f4441490000000000000000000000000000000000000000000000000000000000815260200190815260200160002060008282546111959190613152565b925050819055505b600660008154809291906111b0906132d7565b919050555083806111c0906132d7565b945050505061072a565b600091505b8280549050821080156112755750828281548110611216577f4e487b7100000000000000000000000000000000000000000000000000000000600052603260045260246000fd5b906000526020600020906007020160030154838381548110611261577f4e487b7100000000000000000000000000000000000000000000000000000000600052603260045260246000fd5b906000526020600020906007020160040154145b1561151d5760008290505b600184805490506112919190613202565b81101561144e57836001826112a69190613152565b815481106112dd577f4e487b7100000000000000000000000000000000000000000000000000000000600052603260045260246000fd5b9060005260206000209060070201848281548110611324577f4e487b7100000000000000000000000000000000000000000000000000000000600052603260045260246000fd5b9060005260206000209060070201600082015481600001556001820160009054906101000a900473ffffffffffffffffffffffffffffffffffffffff168160010160006101000a81548173ffffffffffffffffffffffffffffffffffffffff021916908373ffffffffffffffffffffffffffffffffffffffff1602179055506001820160149054906101000a900460ff168160010160146101000a81548160ff02191690836001811115611401577f4e487b7100000000000000000000000000000000000000000000000000000000600052602160045260246000fd5b021790555060028201548160020155600382015481600301556004820154816004015560058201548160050155600682015481600601559050508080611446906132d7565b915050611280565b5082805480611486577f4e487b7100000000000000000000000000000000000000000000000000000000600052603160045260246000fd5b60019003818190600052602060002090600702016000808201600090556001820160006101000a81549073ffffffffffffffffffffffffffffffffffffffff02191690556001820160146101000a81549060ff021916905560028201600090556003820160009055600482016000905560058201600090556006820160009055505090558180611515906132d7565b9250506111cf565b505050505050505050565b60065481565b60006020528060005260406000206000915090508060000154908060010160009054906101000a900473ffffffffffffffffffffffffffffffffffffffff16905082565b600460009054906101000a900473ffffffffffffffffffffffffffffffffffffffff1673ffffffffffffffffffffffffffffffffffffffff163373ffffffffffffffffffffffffffffffffffffffff1614611602576040517f08c379a00000000000000000000000000000000000000000000000000000000081526004016115f990612fc1565b60405180910390fd5b60405180604001604052808381526020018273ffffffffffffffffffffffffffffffffffffffff168152506000808481526020019081526020016000206000820151816000015560208201518160010160006101000a81548173ffffffffffffffffffffffffffffffffffffffff021916908373ffffffffffffffffffffffffffffffffffffffff16021790555090505060038290806001815401808255809150506001900390600052602060002001600090919091909150555050565b600381815481106116d057600080fd5b906000526020600020016000915090505481565b80600073ffffffffffffffffffffffffffffffffffffffff1660008083815260200190815260200160002060010160009054906101000a900473ffffffffffffffffffffffffffffffffffffffff1673ffffffffffffffffffffffffffffffffffffffff16141561178a576040517f08c379a000000000000000000000000000000000000000000000000000000000815260040161178190613041565b60405180910390fd5b82600160003373ffffffffffffffffffffffffffffffffffffffff1673ffffffffffffffffffffffffffffffffffffffff168152602001908152602001600020600084815260200190815260200160002054101561181d576040517f08c379a000000000000000000000000000000000000000000000000000000000815260040161181490612fa1565b60405180910390fd5b82600160003373ffffffffffffffffffffffffffffffffffffffff1673ffffffffffffffffffffffffffffffffffffffff1681526020019081526020016000206000848152602001908152602001600020600082825461187d9190613202565b9250508190555060008083815260200190815260200160002060010160009054906101000a900473ffffffffffffffffffffffffffffffffffffffff1673ffffffffffffffffffffffffffffffffffffffff1663a9059cbb33856040518363ffffffff1660e01b81526004016118f4929190612ef0565b602060405180830381600087803b15801561190e57600080fd5b505af1158015611922573d6000803e3d6000fd5b505050506040513d601f19601f8201168201806040525081019061194691906129c4565b50505050565b6060600060038054905067ffffffffffffffff811115611995577f4e487b7100000000000000000000000000000000000000000000000000000000600052604160045260246000fd5b6040519080825280602002602001820160405280156119ce57816020015b6119bb6128ec565b8152602001906001900390816119b35790505b50905060005b600380549050811015611b3557604051806040016040528060008060038581548110611a29577f4e487b7100000000000000000000000000000000000000000000000000000000600052603260045260246000fd5b9060005260206000200154815260200190815260200160002060000154815260200160008060038581548110611a88577f4e487b7100000000000000000000000000000000000000000000000000000000600052603260045260246000fd5b9060005260206000200154815260200190815260200160002060010160009054906101000a900473ffffffffffffffffffffffffffffffffffffffff1673ffffffffffffffffffffffffffffffffffffffff16815250828281518110611b17577f4e487b7100000000000000000000000000000000000000000000000000000000600052603260045260246000fd5b60200260200101819052508080611b2d906132d7565b9150506119d4565b508091505090565b80600073ffffffffffffffffffffffffffffffffffffffff1660008083815260200190815260200160002060010160009054906101000a900473ffffffffffffffffffffffffffffffffffffffff1673ffffffffffffffffffffffffffffffffffffffff161415611be3576040517f08c379a0000000000000000000000000000000000000000000000000000000008152600401611bda90613041565b60405180910390fd5b60008083815260200190815260200160002060010160009054906101000a900473ffffffffffffffffffffffffffffffffffffffff1673ffffffffffffffffffffffffffffffffffffffff166323b872dd3330866040518463ffffffff1660e01b8152600401611c5593929190612eb9565b602060405180830381600087803b158015611c6f57600080fd5b505af1158015611c83573d6000803e3d6000fd5b505050506040513d601f19601f82011682018060405250810190611ca791906129c4565b5082600160003373ffffffffffffffffffffffffffffffffffffffff1673ffffffffffffffffffffffffffffffffffffffff16815260200190815260200160002060008481526020019081526020016000206000828254611d089190613152565b92505081905550505050565b83600073ffffffffffffffffffffffffffffffffffffffff1660008083815260200190815260200160002060010160009054906101000a900473ffffffffffffffffffffffffffffffffffffffff1673ffffffffffffffffffffffffffffffffffffffff161415611dba576040517f08c379a0000000000000000000000000000000000000000000000000000000008152600401611db190613041565b60405180910390fd5b847f4441490000000000000000000000000000000000000000000000000000000000811415611e1e576040517f08c379a0000000000000000000000000000000000000000000000000000000008152600401611e1590612fe1565b60405180910390fd5b600180811115611e57577f4e487b7100000000000000000000000000000000000000000000000000000000600052602160045260246000fd5b836001811115611e90577f4e487b7100000000000000000000000000000000000000000000000000000000600052602160045260246000fd5b1415611f2e5784600160003373ffffffffffffffffffffffffffffffffffffffff1673ffffffffffffffffffffffffffffffffffffffff1681526020019081526020016000206000888152602001908152602001600020541015611f29576040517f08c379a0000000000000000000000000000000000000000000000000000000008152600401611f2090613001565b60405180910390fd5b611fed565b8385611f3a91906131a8565b600160003373ffffffffffffffffffffffffffffffffffffffff1673ffffffffffffffffffffffffffffffffffffffff16815260200190815260200160002060007f44414900000000000000000000000000000000000000000000000000000000008152602001908152602001600020541015611fec576040517f08c379a0000000000000000000000000000000000000000000000000000000008152600401611fe390613021565b60405180910390fd5b5b600060026000888152602001908152602001600020600085600181111561203d577f4e487b7100000000000000000000000000000000000000000000000000000000600052602160045260246000fd5b815260200190815260200160002090508060405180610100016040528060055481526020013373ffffffffffffffffffffffffffffffffffffffff1681526020018660018111156120b7577f4e487b7100000000000000000000000000000000000000000000000000000000600052602160045260246000fd5b8152602001898152602001888152602001600081526020018781526020014281525090806001815401808255809150506001900390600052602060002090600702016000909190919091506000820151816000015560208201518160010160006101000a81548173ffffffffffffffffffffffffffffffffffffffff021916908373ffffffffffffffffffffffffffffffffffffffff16021790555060408201518160010160146101000a81548160ff021916908360018111156121a4577f4e487b7100000000000000000000000000000000000000000000000000000000600052602160045260246000fd5b0217905550606082015181600201556080820151816003015560a0820151816004015560c0820151816005015560e0820151816006015550506000600182805490506121f09190613202565b90505b60008111156128a45760006001811115612236577f4e487b7100000000000000000000000000000000000000000000000000000000600052602160045260246000fd5b85600181111561226f577f4e487b7100000000000000000000000000000000000000000000000000000000600052602160045260246000fd5b14801561231b57508181815481106122b0577f4e487b7100000000000000000000000000000000000000000000000000000000600052603260045260246000fd5b906000526020600020906007020160050154826001836122d09190613202565b81548110612307577f4e487b7100000000000000000000000000000000000000000000000000000000600052603260045260246000fd5b906000526020600020906007020160050154115b15612325576128a4565b60018081111561235e577f4e487b7100000000000000000000000000000000000000000000000000000000600052602160045260246000fd5b856001811115612397577f4e487b7100000000000000000000000000000000000000000000000000000000600052602160045260246000fd5b14801561244357508181815481106123d8577f4e487b7100000000000000000000000000000000000000000000000000000000600052603260045260246000fd5b906000526020600020906007020160050154826001836123f89190613202565b8154811061242f577f4e487b7100000000000000000000000000000000000000000000000000000000600052603260045260246000fd5b906000526020600020906007020160050154105b1561244d576128a4565b60008260018361245d9190613202565b81548110612494577f4e487b7100000000000000000000000000000000000000000000000000000000600052603260045260246000fd5b906000526020600020906007020160405180610100016040529081600082015481526020016001820160009054906101000a900473ffffffffffffffffffffffffffffffffffffffff1673ffffffffffffffffffffffffffffffffffffffff1673ffffffffffffffffffffffffffffffffffffffff1681526020016001820160149054906101000a900460ff166001811115612559577f4e487b7100000000000000000000000000000000000000000000000000000000600052602160045260246000fd5b6001811115612591577f4e487b7100000000000000000000000000000000000000000000000000000000600052602160045260246000fd5b8152602001600282015481526020016003820154815260200160048201548152602001600582015481526020016006820154815250509050828281548110612602577f4e487b7100000000000000000000000000000000000000000000000000000000600052603260045260246000fd5b90600052602060002090600702018360018461261e9190613202565b81548110612655577f4e487b7100000000000000000000000000000000000000000000000000000000600052603260045260246000fd5b9060005260206000209060070201600082015481600001556001820160009054906101000a900473ffffffffffffffffffffffffffffffffffffffff168160010160006101000a81548173ffffffffffffffffffffffffffffffffffffffff021916908373ffffffffffffffffffffffffffffffffffffffff1602179055506001820160149054906101000a900460ff168160010160146101000a81548160ff02191690836001811115612732577f4e487b7100000000000000000000000000000000000000000000000000000000600052602160045260246000fd5b02179055506002820154816002015560038201548160030155600482015481600401556005820154816005015560068201548160060155905050808383815481106127a6577f4e487b7100000000000000000000000000000000000000000000000000000000600052603260045260246000fd5b90600052602060002090600702016000820151816000015560208201518160010160006101000a81548173ffffffffffffffffffffffffffffffffffffffff021916908373ffffffffffffffffffffffffffffffffffffffff16021790555060408201518160010160146101000a81548160ff02191690836001811115612856577f4e487b7100000000000000000000000000000000000000000000000000000000600052602160045260246000fd5b0217905550606082015181600201556080820151816003015560a0820151816004015560c0820151816005015560e08201518160060155905050818061289b906132ad565b925050506121f3565b600560008154809291906128b7906132d7565b91905055505050505050505050565b600460009054906101000a900473ffffffffffffffffffffffffffffffffffffffff1681565b604051806040016040528060008019168152602001600073ffffffffffffffffffffffffffffffffffffffff1681525090565b60008135905061292e81613488565b92915050565b6000815190506129438161349f565b92915050565b600081359050612958816134b6565b92915050565b60008135905061296d816134cd565b92915050565b600081359050612982816134dd565b92915050565b6000806040838503121561299b57600080fd5b60006129a98582860161291f565b92505060206129ba85828601612949565b9150509250929050565b6000602082840312156129d657600080fd5b60006129e484828501612934565b91505092915050565b6000602082840312156129ff57600080fd5b6000612a0d84828501612949565b91505092915050565b60008060408385031215612a2957600080fd5b6000612a3785828601612949565b9250506020612a488582860161291f565b9150509250929050565b60008060408385031215612a6557600080fd5b6000612a7385828601612949565b9250506020612a848582860161295e565b9150509250929050565b600080600060608486031215612aa357600080fd5b6000612ab186828701612949565b9350506020612ac286828701612973565b9250506040612ad38682870161295e565b9150509250925092565b60008060008060808587031215612af357600080fd5b6000612b0187828801612949565b9450506020612b1287828801612973565b9350506040612b2387828801612973565b9250506060612b348782880161295e565b91505092959194509250565b600060208284031215612b5257600080fd5b6000612b6084828501612973565b91505092915050565b60008060408385031215612b7c57600080fd5b6000612b8a85828601612973565b9250506020612b9b85828601612949565b9150509250929050565b6000612bb18383612daf565b6101008301905092915050565b6000612bca8383612e51565b60408301905092915050565b612bdf81613236565b82525050565b612bee81613236565b82525050565b6000612bff826130ef565b612c09818561311f565b9350612c14836130cf565b8060005b83811015612c45578151612c2c8882612ba5565b9750612c3783613105565b925050600181019050612c18565b5085935050505092915050565b6000612c5d826130fa565b612c678185613130565b9350612c72836130df565b8060005b83811015612ca3578151612c8a8882612bbe565b9750612c9583613112565b925050600181019050612c76565b5085935050505092915050565b612cb981613254565b82525050565b612cc881613254565b82525050565b612cd78161329b565b82525050565b6000612cea600f83613141565b9150612cf58261337e565b602082019050919050565b6000612d0d600a83613141565b9150612d18826133a7565b602082019050919050565b6000612d30601083613141565b9150612d3b826133d0565b602082019050919050565b6000612d53601583613141565b9150612d5e826133f9565b602082019050919050565b6000612d76601383613141565b9150612d8182613422565b602082019050919050565b6000612d99601983613141565b9150612da48261344b565b602082019050919050565b61010082016000820151612dc66000850182612e80565b506020820151612dd96020850182612bd6565b506040820151612dec6040850182612cce565b506060820151612dff6060850182612cb0565b506080820151612e126080850182612e80565b5060a0820151612e2560a0850182612e80565b5060c0820151612e3860c0850182612e80565b5060e0820151612e4b60e0850182612e80565b50505050565b604082016000820151612e676000850182612cb0565b506020820151612e7a6020850182612bd6565b50505050565b612e8981613291565b82525050565b612e9881613291565b82525050565b6000602082019050612eb36000830184612be5565b92915050565b6000606082019050612ece6000830186612be5565b612edb6020830185612be5565b612ee86040830184612e8f565b949350505050565b6000604082019050612f056000830185612be5565b612f126020830184612e8f565b9392505050565b60006020820190508181036000830152612f338184612bf4565b905092915050565b60006020820190508181036000830152612f558184612c52565b905092915050565b6000602082019050612f726000830184612cbf565b92915050565b6000604082019050612f8d6000830185612cbf565b612f9a6020830184612be5565b9392505050565b60006020820190508181036000830152612fba81612cdd565b9050919050565b60006020820190508181036000830152612fda81612d00565b9050919050565b60006020820190508181036000830152612ffa81612d23565b9050919050565b6000602082019050818103600083015261301a81612d46565b9050919050565b6000602082019050818103600083015261303a81612d69565b9050919050565b6000602082019050818103600083015261305a81612d8c565b9050919050565b60006020820190506130766000830184612e8f565b92915050565b600060a0820190506130916000830188612e8f565b61309e6020830187612e8f565b6130ab6040830186612e8f565b6130b86060830185612e8f565b6130c56080830184612e8f565b9695505050505050565b6000819050602082019050919050565b6000819050602082019050919050565b600081519050919050565b600081519050919050565b6000602082019050919050565b6000602082019050919050565b600082825260208201905092915050565b600082825260208201905092915050565b600082825260208201905092915050565b600061315d82613291565b915061316883613291565b9250827fffffffffffffffffffffffffffffffffffffffffffffffffffffffffffffffff0382111561319d5761319c613320565b5b828201905092915050565b60006131b382613291565b91506131be83613291565b9250817fffffffffffffffffffffffffffffffffffffffffffffffffffffffffffffffff04831182151516156131f7576131f6613320565b5b828202905092915050565b600061320d82613291565b915061321883613291565b92508282101561322b5761322a613320565b5b828203905092915050565b600061324182613271565b9050919050565b60008115159050919050565b6000819050919050565b600081905061326c82613474565b919050565b600073ffffffffffffffffffffffffffffffffffffffff82169050919050565b6000819050919050565b60006132a68261325e565b9050919050565b60006132b882613291565b915060008214156132cc576132cb613320565b5b600182039050919050565b60006132e282613291565b91507fffffffffffffffffffffffffffffffffffffffffffffffffffffffffffffffff82141561331557613314613320565b5b600182019050919050565b7f4e487b7100000000000000000000000000000000000000000000000000000000600052601160045260246000fd5b7f4e487b7100000000000000000000000000000000000000000000000000000000600052602160045260246000fd5b7f62616c616e636520746f6f206c6f770000000000000000000000000000000000600082015250565b7f6f6e6c792061646d696e00000000000000000000000000000000000000000000600082015250565b7f63616e6e6f742074726164652044414900000000000000000000000000000000600082015250565b7f746f6b656e2062616c616e636520746f6f206c6f770000000000000000000000600082015250565b7f6461692062616c616e636520746f6f206c6f7700000000000000000000000000600082015250565b7f7468697320746f6b656e20646f6573206e6f7420657869737400000000000000600082015250565b600281106134855761348461334f565b5b50565b61349181613236565b811461349c57600080fd5b50565b6134a881613248565b81146134b357600080fd5b50565b6134bf81613254565b81146134ca57600080fd5b50565b600281106134da57600080fd5b50565b6134e681613291565b81146134f157600080fd5b5056fea2646970667358221220b7b783a4fc1c9082fb29dbd4b0370e1a6fbcfb7a3ffb40bcc2f265a65c79e7fe64736f6c63430008040033",
  "immutableReferences": {},
  "source": "//  SPDX-License-Identifier: UNLICENSED\npragma solidity ^0.8.4;\n\nimport '@openzeppelin/contracts/token/ERC20/IERC20.sol';\n\nlibrary DexLib {\n    enum Side {\n        BUY,\n        SELL\n    }\n    struct Token {\n        bytes32 ticker;\n        address tokenAddress;\n    }\n    struct Order {\n        uint256 id;\n        address trader;\n        Side side;\n        bytes32 ticker;\n        uint256 amount;\n        uint256 filled;\n        uint256 price;\n        uint256 date;\n    }\n}\n\ncontract Dex {\n    mapping(bytes32 => DexLib.Token) public tokens;\n    mapping(address => mapping(bytes32 => uint256)) public traderBalances;\n    mapping(bytes32 => mapping(uint256 => DexLib.Order[])) orderBook;\n    bytes32[] public tokenList;\n    address public admin;\n    uint256 public nextOrderId;\n    uint256 public nextTradeId;\n    bytes32 constant DAI = bytes32('DAI');\n\n    event NewTrade(\n        uint256 tradeId,\n        uint256 orderId,\n        address indexed trader1,\n        address indexed trader2,\n        uint256 amount,\n        uint256 price,\n        uint256 date\n    );\n\n    constructor() {\n        admin = msg.sender;\n    }\n\n    function getOrders(bytes32 ticker, DexLib.Side side)\n        external\n        view\n        returns (DexLib.Order[] memory)\n    {\n        return orderBook[ticker][uint256(side)];\n    }\n\n    function getTokens() external view returns (DexLib.Token[] memory) {\n        DexLib.Token[] memory _tokens = new DexLib.Token[](tokenList.length);\n        for (uint256 i = 0; i < tokenList.length; i++) {\n            _tokens[i] = DexLib.Token(\n                tokens[tokenList[i]].ticker,\n                tokens[tokenList[i]].tokenAddress\n            );\n        }\n        return _tokens;\n    }\n\n    function addToken(bytes32 ticker, address tokenAddress) external onlyAdmin {\n        tokens[ticker] = DexLib.Token(ticker, tokenAddress);\n        tokenList.push(ticker);\n    }\n\n    function deposit(uint256 amount, bytes32 ticker)\n        external\n        tokenExist(ticker)\n    {\n        IERC20(tokens[ticker].tokenAddress).transferFrom(\n            msg.sender,\n            address(this),\n            amount\n        );\n        traderBalances[msg.sender][ticker] += amount;\n    }\n\n    function withdraw(uint256 amount, bytes32 ticker)\n        external\n        tokenExist(ticker)\n    {\n        require(\n            traderBalances[msg.sender][ticker] >= amount,\n            'balance too low'\n        );\n        traderBalances[msg.sender][ticker] -= amount;\n        IERC20(tokens[ticker].tokenAddress).transfer(msg.sender, amount);\n    }\n\n    function createLimitOrder(\n        bytes32 ticker,\n        uint256 amount,\n        uint256 price,\n        DexLib.Side side\n    ) external tokenExist(ticker) tokenIsNotDai(ticker) {\n        if (side == DexLib.Side.SELL) {\n            require(\n                traderBalances[msg.sender][ticker] >= amount,\n                'token balance too low'\n            );\n        } else {\n            require(\n                traderBalances[msg.sender][DAI] >= amount * price,\n                'dai balance too low'\n            );\n        }\n        DexLib.Order[] storage orders = orderBook[ticker][uint256(side)];\n        orders.push(\n            DexLib.Order(\n                nextOrderId,\n                msg.sender,\n                side,\n                ticker,\n                amount,\n                0,\n                price,\n                block.timestamp\n            )\n        );\n\n        uint256 i = orders.length - 1;\n        while (i > 0) {\n            if (\n                side == DexLib.Side.BUY && orders[i - 1].price > orders[i].price\n            ) {\n                break;\n            }\n            if (\n                side == DexLib.Side.SELL &&\n                orders[i - 1].price < orders[i].price\n            ) {\n                break;\n            }\n\n            DexLib.Order memory order = orders[i - 1];\n            orders[i - 1] = orders[i];\n            orders[i] = order;\n            i--;\n        }\n        nextOrderId++;\n    }\n\n    function createMarketOrder(\n        bytes32 ticker,\n        uint256 amount,\n        DexLib.Side side\n    ) external tokenExist(ticker) tokenIsNotDai(ticker) {\n        bool isSell = side == DexLib.Side.SELL;\n        if (isSell) {\n            require(\n                traderBalances[msg.sender][ticker] >= amount,\n                'token balance too low'\n            );\n        }\n        DexLib.Order[] storage orders = orderBook[ticker][\n            uint256(isSell ? DexLib.Side.BUY : DexLib.Side.SELL)\n        ];\n        uint256 i;\n        uint256 remaining = amount;\n        while (i < orders.length && remaining > 0) {\n            uint256 available = orders[i].amount - orders[i].filled;\n            uint256 matched = remaining > available ? available : remaining;\n            remaining -= matched;\n            orders[i].filled += matched;\n            emit NewTrade(\n                nextTradeId,\n                orders[i].id,\n                orders[i].trader,\n                msg.sender,\n                matched,\n                orders[i].price,\n                block.timestamp\n            );\n\n            if (isSell) {\n                traderBalances[msg.sender][ticker] -= matched;\n                traderBalances[msg.sender][DAI] += matched * orders[i].price;\n                traderBalances[orders[i].trader][ticker] += matched;\n                traderBalances[orders[i].trader][DAI] -=\n                    matched *\n                    orders[i].price;\n            } else {\n                require(\n                    traderBalances[msg.sender][DAI] >=\n                        matched * orders[i].price,\n                    'dai balance too low'\n                );\n                traderBalances[msg.sender][ticker] += matched;\n                traderBalances[msg.sender][DAI] -= matched * orders[i].price;\n                traderBalances[orders[i].trader][ticker] -= matched;\n                traderBalances[orders[i].trader][DAI] +=\n                    matched *\n                    orders[i].price;\n            }\n\n            nextTradeId++;\n            i++;\n        }\n\n        i = 0;\n        while (i < orders.length && orders[i].filled == orders[i].amount) {\n            for (uint256 j = i; j < orders.length - 1; j++) {\n                orders[j] = orders[j + 1];\n            }\n            orders.pop();\n            i++;\n        }\n    }\n\n    modifier onlyAdmin() {\n        require(msg.sender == admin, 'only admin');\n        _;\n    }\n\n    modifier tokenExist(bytes32 ticker) {\n        require(\n            tokens[ticker].tokenAddress != address(0),\n            'this token does not exist'\n        );\n        _;\n    }\n\n    modifier tokenIsNotDai(bytes32 ticker) {\n        require(ticker != DAI, 'cannot trade DAI');\n        _;\n    }\n}\n",
  "sourcePath": "/Users/cris/Projects/blockchain/dex/dex-contract/contracts/Dex.sol",
  "compiler": {
    "name": "solc",
    "version": "0.8.4+commit.c7e474f2.Emscripten.clang"
  },
  "schemaVersion": "3.4.1",
  "updatedAt": "2021-07-31T21:52:42.891Z",
  "networkType": "ethereum",
  "devdoc": {
    "kind": "dev",
    "methods": {},
    "version": 1
  },
  "userdoc": {
    "kind": "user",
    "methods": {},
    "version": 1
  }
}